{
  "_format": "hh-sol-artifact-1",
  "contractName": "Multipool",
  "sourceName": "contracts/jester/Multipool.sol",
  "abi": [
    {
      "inputs": [
        {
          "internalType": "string",
          "name": "_name",
          "type": "string"
        },
        {
          "internalType": "string",
          "name": "_symbol",
          "type": "string"
        }
      ],
      "stateMutability": "nonpayable",
      "type": "constructor"
    },
    {
      "anonymous": false,
      "inputs": [
        {
          "indexed": true,
          "internalType": "address",
          "name": "owner",
          "type": "address"
        },
        {
          "indexed": true,
          "internalType": "address",
          "name": "spender",
          "type": "address"
        },
        {
          "indexed": false,
          "internalType": "uint256",
          "name": "value",
          "type": "uint256"
        }
      ],
      "name": "Approval",
      "type": "event"
    },
    {
      "anonymous": false,
      "inputs": [
        {
          "indexed": true,
          "internalType": "address",
          "name": "previousOwner",
          "type": "address"
        },
        {
          "indexed": true,
          "internalType": "address",
          "name": "newOwner",
          "type": "address"
        }
      ],
      "name": "OwnershipTransferred",
      "type": "event"
    },
    {
      "anonymous": false,
      "inputs": [
        {
          "indexed": true,
          "internalType": "address",
          "name": "from",
          "type": "address"
        },
        {
          "indexed": true,
          "internalType": "address",
          "name": "to",
          "type": "address"
        },
        {
          "indexed": false,
          "internalType": "uint256",
          "name": "value",
          "type": "uint256"
        }
      ],
      "name": "Transfer",
      "type": "event"
    },
    {
      "inputs": [],
      "name": "Denominator",
      "outputs": [
        {
          "internalType": "uint256",
          "name": "",
          "type": "uint256"
        }
      ],
      "stateMutability": "view",
      "type": "function"
    },
    {
      "inputs": [
        {
          "internalType": "address",
          "name": "owner",
          "type": "address"
        },
        {
          "internalType": "address",
          "name": "spender",
          "type": "address"
        }
      ],
      "name": "allowance",
      "outputs": [
        {
          "internalType": "uint256",
          "name": "",
          "type": "uint256"
        }
      ],
      "stateMutability": "view",
      "type": "function"
    },
    {
      "inputs": [
        {
          "internalType": "address",
          "name": "spender",
          "type": "address"
        },
        {
          "internalType": "uint256",
          "name": "amount",
          "type": "uint256"
        }
      ],
      "name": "approve",
      "outputs": [
        {
          "internalType": "bool",
          "name": "",
          "type": "bool"
        }
      ],
      "stateMutability": "nonpayable",
      "type": "function"
    },
    {
      "inputs": [
        {
          "internalType": "address",
          "name": "",
          "type": "address"
        }
      ],
      "name": "assetPercents",
      "outputs": [
        {
          "internalType": "uint256",
          "name": "",
          "type": "uint256"
        }
      ],
      "stateMutability": "view",
      "type": "function"
    },
    {
      "inputs": [
        {
          "internalType": "address",
          "name": "",
          "type": "address"
        }
      ],
      "name": "assetQuantities",
      "outputs": [
        {
          "internalType": "uint256",
          "name": "",
          "type": "uint256"
        }
      ],
      "stateMutability": "view",
      "type": "function"
    },
    {
      "inputs": [
        {
          "internalType": "address",
          "name": "account",
          "type": "address"
        }
      ],
      "name": "balanceOf",
      "outputs": [
        {
          "internalType": "uint256",
          "name": "",
          "type": "uint256"
        }
      ],
      "stateMutability": "view",
      "type": "function"
    },
    {
      "inputs": [],
      "name": "baseBurnFee",
      "outputs": [
        {
          "internalType": "uint256",
          "name": "",
          "type": "uint256"
        }
      ],
      "stateMutability": "view",
      "type": "function"
    },
    {
      "inputs": [],
      "name": "baseMintFee",
      "outputs": [
        {
          "internalType": "uint256",
          "name": "",
          "type": "uint256"
        }
      ],
      "stateMutability": "view",
      "type": "function"
    },
    {
      "inputs": [],
      "name": "baseTradeFee",
      "outputs": [
        {
          "internalType": "uint256",
          "name": "",
          "type": "uint256"
        }
      ],
      "stateMutability": "view",
      "type": "function"
    },
    {
      "inputs": [
        {
          "internalType": "uint256",
          "name": "_share",
          "type": "uint256"
        },
        {
          "internalType": "address",
          "name": "_asset",
          "type": "address"
        },
        {
          "internalType": "address",
          "name": "_to",
          "type": "address"
        }
      ],
      "name": "burn",
      "outputs": [],
      "stateMutability": "nonpayable",
      "type": "function"
    },
    {
      "inputs": [
        {
          "internalType": "address",
          "name": "",
          "type": "address"
        }
      ],
      "name": "collectedAssetFees",
      "outputs": [
        {
          "internalType": "uint256",
          "name": "",
          "type": "uint256"
        }
      ],
      "stateMutability": "view",
      "type": "function"
    },
    {
      "inputs": [
        {
          "internalType": "address",
          "name": "",
          "type": "address"
        }
      ],
      "name": "currentPrices",
      "outputs": [
        {
          "internalType": "uint256",
          "name": "",
          "type": "uint256"
        }
      ],
      "stateMutability": "view",
      "type": "function"
    },
    {
      "inputs": [],
      "name": "curveDelay",
      "outputs": [
        {
          "internalType": "uint256",
          "name": "",
          "type": "uint256"
        }
      ],
      "stateMutability": "view",
      "type": "function"
    },
    {
      "inputs": [],
      "name": "decimals",
      "outputs": [
        {
          "internalType": "uint8",
          "name": "",
          "type": "uint8"
        }
      ],
      "stateMutability": "view",
      "type": "function"
    },
    {
      "inputs": [
        {
          "internalType": "address",
          "name": "spender",
          "type": "address"
        },
        {
          "internalType": "uint256",
          "name": "subtractedValue",
          "type": "uint256"
        }
      ],
      "name": "decreaseAllowance",
      "outputs": [
        {
          "internalType": "bool",
          "name": "",
          "type": "bool"
        }
      ],
      "stateMutability": "nonpayable",
      "type": "function"
    },
    {
      "inputs": [
        {
          "internalType": "address",
          "name": "spender",
          "type": "address"
        },
        {
          "internalType": "uint256",
          "name": "addedValue",
          "type": "uint256"
        }
      ],
      "name": "increaseAllowance",
      "outputs": [
        {
          "internalType": "bool",
          "name": "",
          "type": "bool"
        }
      ],
      "stateMutability": "nonpayable",
      "type": "function"
    },
    {
      "inputs": [
        {
          "internalType": "address",
          "name": "_asset",
          "type": "address"
        },
        {
          "internalType": "address",
          "name": "_to",
          "type": "address"
        }
      ],
      "name": "mint",
      "outputs": [],
      "stateMutability": "nonpayable",
      "type": "function"
    },
    {
      "inputs": [],
      "name": "name",
      "outputs": [
        {
          "internalType": "string",
          "name": "",
          "type": "string"
        }
      ],
      "stateMutability": "view",
      "type": "function"
    },
    {
      "inputs": [],
      "name": "owner",
      "outputs": [
        {
          "internalType": "address",
          "name": "",
          "type": "address"
        }
      ],
      "stateMutability": "view",
      "type": "function"
    },
    {
      "inputs": [
        {
          "internalType": "uint256",
          "name": "depegRate",
          "type": "uint256"
        }
      ],
      "name": "pegCurve",
      "outputs": [
        {
          "internalType": "uint256",
          "name": "y",
          "type": "uint256"
        }
      ],
      "stateMutability": "view",
      "type": "function"
    },
    {
      "inputs": [],
      "name": "renounceOwnership",
      "outputs": [],
      "stateMutability": "nonpayable",
      "type": "function"
    },
    {
      "inputs": [],
      "name": "restrictPercent",
      "outputs": [
        {
          "internalType": "uint256",
          "name": "",
          "type": "uint256"
        }
      ],
      "stateMutability": "view",
      "type": "function"
    },
    {
      "inputs": [
        {
          "internalType": "address",
          "name": "_assetIn",
          "type": "address"
        },
        {
          "internalType": "address",
          "name": "_assetOut",
          "type": "address"
        },
        {
          "internalType": "address",
          "name": "_to",
          "type": "address"
        }
      ],
      "name": "swap",
      "outputs": [],
      "stateMutability": "nonpayable",
      "type": "function"
    },
    {
      "inputs": [],
      "name": "symbol",
      "outputs": [
        {
          "internalType": "string",
          "name": "",
          "type": "string"
        }
      ],
      "stateMutability": "view",
      "type": "function"
    },
    {
      "inputs": [],
      "name": "totalSupply",
      "outputs": [
        {
          "internalType": "uint256",
          "name": "",
          "type": "uint256"
        }
      ],
      "stateMutability": "view",
      "type": "function"
    },
    {
      "inputs": [
        {
          "internalType": "address",
          "name": "to",
          "type": "address"
        },
        {
          "internalType": "uint256",
          "name": "amount",
          "type": "uint256"
        }
      ],
      "name": "transfer",
      "outputs": [
        {
          "internalType": "bool",
          "name": "",
          "type": "bool"
        }
      ],
      "stateMutability": "nonpayable",
      "type": "function"
    },
    {
      "inputs": [
        {
          "internalType": "address",
          "name": "from",
          "type": "address"
        },
        {
          "internalType": "address",
          "name": "to",
          "type": "address"
        },
        {
          "internalType": "uint256",
          "name": "amount",
          "type": "uint256"
        }
      ],
      "name": "transferFrom",
      "outputs": [
        {
          "internalType": "bool",
          "name": "",
          "type": "bool"
        }
      ],
      "stateMutability": "nonpayable",
      "type": "function"
    },
    {
      "inputs": [
        {
          "internalType": "address",
          "name": "newOwner",
          "type": "address"
        }
      ],
      "name": "transferOwnership",
      "outputs": [],
      "stateMutability": "nonpayable",
      "type": "function"
    },
    {
      "inputs": [
        {
          "internalType": "address",
          "name": "_asset",
          "type": "address"
        },
        {
          "internalType": "uint256",
          "name": "_price",
          "type": "uint256"
        }
      ],
      "name": "updatePrice",
      "outputs": [],
      "stateMutability": "nonpayable",
      "type": "function"
    }
  ],
  "bytecode": "0x6080604052662386f26fc10000601055662386f26fc10000601155662386f26fc10000601255670de0b6b3a76400006013553480156200003e57600080fd5b50604051620033e6380380620033e68339818101604052810190620000649190620002b2565b818181600590805190602001906200007e92919062000190565b5080600690805190602001906200009792919062000190565b505050620000ba620000ae620000c260201b60201c565b620000ca60201b60201c565b505062000456565b600033905090565b6000600760009054906101000a900473ffffffffffffffffffffffffffffffffffffffff16905081600760006101000a81548173ffffffffffffffffffffffffffffffffffffffff021916908373ffffffffffffffffffffffffffffffffffffffff1602179055508173ffffffffffffffffffffffffffffffffffffffff168173ffffffffffffffffffffffffffffffffffffffff167f8be0079c531659141344cd1fd0a4f28419497f9722a3daafe3b4186f6b6457e060405160405180910390a35050565b8280546200019e90620003c2565b90600052602060002090601f016020900481019282620001c257600085556200020e565b82601f10620001dd57805160ff19168380011785556200020e565b828001600101855582156200020e579182015b828111156200020d578251825591602001919060010190620001f0565b5b5090506200021d919062000221565b5090565b5b808211156200023c57600081600090555060010162000222565b5090565b600062000257620002518462000359565b62000325565b9050828152602081018484840111156200027057600080fd5b6200027d8482856200038c565b509392505050565b600082601f8301126200029757600080fd5b8151620002a984826020860162000240565b91505092915050565b60008060408385031215620002c657600080fd5b600083015167ffffffffffffffff811115620002e157600080fd5b620002ef8582860162000285565b925050602083015167ffffffffffffffff8111156200030d57600080fd5b6200031b8582860162000285565b9150509250929050565b6000604051905081810181811067ffffffffffffffff821117156200034f576200034e62000427565b5b8060405250919050565b600067ffffffffffffffff82111562000377576200037662000427565b5b601f19601f8301169050602081019050919050565b60005b83811015620003ac5780820151818401526020810190506200038f565b83811115620003bc576000848401525b50505050565b60006002820490506001821680620003db57607f821691505b60208210811415620003f257620003f1620003f8565b5b50919050565b7f4e487b7100000000000000000000000000000000000000000000000000000000600052602260045260246000fd5b7f4e487b7100000000000000000000000000000000000000000000000000000000600052604160045260246000fd5b612f8080620004666000396000f3fe608060405234801561001057600080fd5b50600436106101cf5760003560e01c8063715018a611610104578063d0cc6877116100a2578063ee1fe2ad11610071578063ee1fe2ad14610582578063ef265d6d1461059e578063f2fde38b146105ba578063f70210ea146105d6576101cf565b8063d0cc6877146104d4578063da15932014610504578063dd62ed3e14610534578063ea2347c814610564576101cf565b806395d89b41116100de57806395d89b4114610426578063a279cb5614610444578063a457c2d714610474578063a9059cbb146104a4576101cf565b8063715018a6146103e25780638da5cb5b146103ec578063933162121461040a576101cf565b8063313ce56711610171578063457972de1161014b578063457972de14610348578063558c106f1461036457806364f76eaa1461038257806370a08231146103b2576101cf565b8063313ce567146102ca57806339509351146102e85780633fc8211414610318576101cf565b8063098a1317116101ad578063098a13171461024057806318160ddd1461025e57806323b872dd1461027c57806328f0a829146102ac576101cf565b806306fdde03146101d457806307ebdb2e146101f2578063095ea7b314610210575b600080fd5b6101dc6105f4565b6040516101e99190612a84565b60405180910390f35b6101fa610686565b6040516102079190612c46565b60405180910390f35b61022a60048036038101906102259190612414565b61068c565b6040516102379190612a69565b60405180910390f35b6102486106af565b6040516102559190612c46565b60405180910390f35b6102666106b5565b6040516102739190612c46565b60405180910390f35b610296600480360381019061029191906123c5565b6106bf565b6040516102a39190612a69565b60405180910390f35b6102b46106ee565b6040516102c19190612c46565b60405180910390f35b6102d26106f4565b6040516102df9190612c61565b60405180910390f35b61030260048036038101906102fd9190612414565b6106fd565b60405161030f9190612a69565b60405180910390f35b610332600480360381019061032d9190612311565b610734565b60405161033f9190612c46565b60405180910390f35b610362600480360381019061035d9190612414565b61074c565b005b61036c6108bb565b6040516103799190612c46565b60405180910390f35b61039c60048036038101906103979190612311565b6108c1565b6040516103a99190612c46565b60405180910390f35b6103cc60048036038101906103c79190612311565b6108d9565b6040516103d99190612c46565b60405180910390f35b6103ea610921565b005b6103f4610935565b6040516104019190612a25565b60405180910390f35b610424600480360381019061041f9190612376565b61095f565b005b61042e610dd8565b60405161043b9190612a84565b60405180910390f35b61045e60048036038101906104599190612311565b610e6a565b60405161046b9190612c46565b60405180910390f35b61048e60048036038101906104899190612414565b610e82565b60405161049b9190612a69565b60405180910390f35b6104be60048036038101906104b99190612414565b610ef9565b6040516104cb9190612a69565b60405180910390f35b6104ee60048036038101906104e99190612479565b610f1c565b6040516104fb9190612c46565b60405180910390f35b61051e60048036038101906105199190612311565b610f8e565b60405161052b9190612c46565b60405180910390f35b61054e6004803603810190610549919061233a565b610fa6565b60405161055b9190612c46565b60405180910390f35b61056c61102d565b6040516105799190612c46565b60405180910390f35b61059c6004803603810190610597919061233a565b611033565b005b6105b860048036038101906105b391906124cb565b6113cd565b005b6105d460048036038101906105cf9190612311565b61169e565b005b6105de611722565b6040516105eb9190612c46565b60405180910390f35b60606005805461060390612e35565b80601f016020809104026020016040519081016040528092919081815260200182805461062f90612e35565b801561067c5780601f106106515761010080835404028352916020019161067c565b820191906000526020600020905b81548152906001019060200180831161065f57829003601f168201915b5050505050905090565b60125481565b600080610697611728565b90506106a4818585611730565b600191505092915050565b600f5481565b6000600454905090565b6000806106ca611728565b90506106d78582856118fb565b6106e2858585611987565b60019150509392505050565b60135481565b60006012905090565b600080610708611728565b905061072981858561071a8589610fa6565b6107249190612c98565b611730565b600191505092915050565b600c6020528060005260406000206000915090505481565b610754611ccf565b601354600a60008473ffffffffffffffffffffffffffffffffffffffff1673ffffffffffffffffffffffffffffffffffffffff16815260200190815260200160002054600860008573ffffffffffffffffffffffffffffffffffffffff1673ffffffffffffffffffffffffffffffffffffffff168152602001908152602001600020546107e19190612d1f565b6107eb9190612cee565b600b60008282546107fc9190612d79565b9250508190555060135481600860008573ffffffffffffffffffffffffffffffffffffffff1673ffffffffffffffffffffffffffffffffffffffff168152602001908152602001600020546108519190612d1f565b61085b9190612cee565b600b600082825461086c9190612c98565b9250508190555080600a60008473ffffffffffffffffffffffffffffffffffffffff1673ffffffffffffffffffffffffffffffffffffffff168152602001908152602001600020819055505050565b600e5481565b60096020528060005260406000206000915090505481565b60008060008373ffffffffffffffffffffffffffffffffffffffff1673ffffffffffffffffffffffffffffffffffffffff168152602001908152602001600020549050919050565b610929611ccf565b6109336000611d4d565b565b6000600760009054906101000a900473ffffffffffffffffffffffffffffffffffffffff16905090565b6000600860008573ffffffffffffffffffffffffffffffffffffffff1673ffffffffffffffffffffffffffffffffffffffff16815260200190815260200160002054600860008673ffffffffffffffffffffffffffffffffffffffff1673ffffffffffffffffffffffffffffffffffffffff168152602001908152602001600020548573ffffffffffffffffffffffffffffffffffffffff166370a08231306040518263ffffffff1660e01b8152600401610a1a9190612a25565b60206040518083038186803b158015610a3257600080fd5b505afa158015610a46573d6000803e3d6000fd5b505050506040513d601f19601f82011682018060405250810190610a6a91906124a2565b610a749190612d79565b610a7e9190612d79565b90506000600a60008673ffffffffffffffffffffffffffffffffffffffff1673ffffffffffffffffffffffffffffffffffffffff1681526020019081526020016000205490506000600a60008673ffffffffffffffffffffffffffffffffffffffff1673ffffffffffffffffffffffffffffffffffffffff1681526020019081526020016000205490506000818385610b179190612d1f565b610b219190612cee565b905060006012549050610b7f8886600860008c73ffffffffffffffffffffffffffffffffffffffff1673ffffffffffffffffffffffffffffffffffffffff16815260200190815260200160002054610b799190612c98565b86611e13565b81610b8a9190612c98565b9050610be18783600860008b73ffffffffffffffffffffffffffffffffffffffff1673ffffffffffffffffffffffffffffffffffffffff16815260200190815260200160002054610bdb9190612d79565b85611e13565b81610bec9190612c98565b905060006013548287610bff9190612d1f565b610c099190612cee565b9050600084868389610c1b9190612d79565b610c259190612d1f565b610c2f9190612cee565b905081600960008c73ffffffffffffffffffffffffffffffffffffffff1673ffffffffffffffffffffffffffffffffffffffff1681526020019081526020016000206000828254610c809190612c98565b925050819055508187610c939190612d79565b600860008c73ffffffffffffffffffffffffffffffffffffffff1673ffffffffffffffffffffffffffffffffffffffff1681526020019081526020016000206000828254610ce19190612c98565b9250508190555083600860008b73ffffffffffffffffffffffffffffffffffffffff1673ffffffffffffffffffffffffffffffffffffffff1681526020019081526020016000206000828254610d379190612d79565b925050819055508873ffffffffffffffffffffffffffffffffffffffff1663a9059cbb89836040518363ffffffff1660e01b8152600401610d79929190612a40565b602060405180830381600087803b158015610d9357600080fd5b505af1158015610da7573d6000803e3d6000fd5b505050506040513d601f19601f82011682018060405250810190610dcb9190612450565b5050505050505050505050565b606060068054610de790612e35565b80601f0160208091040260200160405190810160405280929190818152602001828054610e1390612e35565b8015610e605780601f10610e3557610100808354040283529160200191610e60565b820191906000526020600020905b815481529060010190602001808311610e4357829003601f168201915b5050505050905090565b600a6020528060005260406000206000915090505481565b600080610e8d611728565b90506000610e9b8286610fa6565b905083811015610ee0576040517f08c379a0000000000000000000000000000000000000000000000000000000008152600401610ed790612be6565b60405180910390fd5b610eed8286868403611730565b60019250505092915050565b600080610f04611728565b9050610f11818585611987565b600191505092915050565b6000600f54821115610f395768056bc75e2d631000009050610f89565b600f5482601354600f54610f4d9190612d1f565b610f579190612d79565b60135484600e54610f689190612d1f565b610f729190612d1f565b610f7c9190612cee565b610f869190612cee565b90505b919050565b60086020528060005260406000206000915090505481565b6000600160008473ffffffffffffffffffffffffffffffffffffffff1673ffffffffffffffffffffffffffffffffffffffff16815260200190815260200160002060008373ffffffffffffffffffffffffffffffffffffffff1673ffffffffffffffffffffffffffffffffffffffff16815260200190815260200160002054905092915050565b60115481565b6000600c60008473ffffffffffffffffffffffffffffffffffffffff1673ffffffffffffffffffffffffffffffffffffffff1681526020019081526020016000205414156110b6576040517f08c379a00000000000000000000000000000000000000000000000000000000081526004016110ad90612c06565b60405180910390fd5b6000600960008473ffffffffffffffffffffffffffffffffffffffff1673ffffffffffffffffffffffffffffffffffffffff16815260200190815260200160002054600860008573ffffffffffffffffffffffffffffffffffffffff1673ffffffffffffffffffffffffffffffffffffffff168152602001908152602001600020548473ffffffffffffffffffffffffffffffffffffffff166370a08231306040518263ffffffff1660e01b81526004016111719190612a25565b60206040518083038186803b15801561118957600080fd5b505afa15801561119d573d6000803e3d6000fd5b505050506040513d601f19601f820116820180604052508101906111c191906124a2565b6111cb9190612d79565b6111d59190612d79565b90506000600a60008573ffffffffffffffffffffffffffffffffffffffff1673ffffffffffffffffffffffffffffffffffffffff168152602001908152602001600020549050600060105461127586600860008973ffffffffffffffffffffffffffffffffffffffff1673ffffffffffffffffffffffffffffffffffffffff168152602001908152602001600020548661126f9190612c98565b85611e13565b61127f9190612c98565b9050600060135484836112929190612d1f565b61129c9190612cee565b9050600060135484836112af9190612d1f565b6112b99190612cee565b856112c49190612d79565b90506000806112d16106b5565b14156112df57819050611302565b6112e76106b5565b600b54836112f59190612d1f565b6112ff9190612cee565b90505b82600960008a73ffffffffffffffffffffffffffffffffffffffff1673ffffffffffffffffffffffffffffffffffffffff16815260200190815260200160002060008282546113519190612c98565b9250508190555082866113649190612d79565b600860008a73ffffffffffffffffffffffffffffffffffffffff1673ffffffffffffffffffffffffffffffffffffffff16815260200190815260200160002060008282546113b29190612c98565b925050819055506113c38782611f5f565b5050505050505050565b6000600c60008473ffffffffffffffffffffffffffffffffffffffff1673ffffffffffffffffffffffffffffffffffffffff168152602001908152602001600020541415611450576040517f08c379a000000000000000000000000000000000000000000000000000000000815260040161144790612c06565b60405180910390fd5b6000600a60008473ffffffffffffffffffffffffffffffffffffffff1673ffffffffffffffffffffffffffffffffffffffff1681526020019081526020016000205490506000600b546114a16106b5565b866114ac9190612d1f565b6114b69190612cee565b905060006011546115128684600860008a73ffffffffffffffffffffffffffffffffffffffff1673ffffffffffffffffffffffffffffffffffffffff1681526020019081526020016000205461150c9190612d79565b86611e13565b61151c9190612c98565b90506000601354838361152f9190612d1f565b6115399190612cee565b905080600960008873ffffffffffffffffffffffffffffffffffffffff1673ffffffffffffffffffffffffffffffffffffffff168152602001908152602001600020600082825461158a9190612c98565b92505081905550808361159d9190612d79565b600860008873ffffffffffffffffffffffffffffffffffffffff1673ffffffffffffffffffffffffffffffffffffffff16815260200190815260200160002060008282546115eb9190612d79565b925050819055508573ffffffffffffffffffffffffffffffffffffffff1663a9059cbb86838661161b9190612d79565b6040518363ffffffff1660e01b8152600401611638929190612a40565b602060405180830381600087803b15801561165257600080fd5b505af1158015611666573d6000803e3d6000fd5b505050506040513d601f19601f8201168201806040525081019061168a9190612450565b5061169533886120b6565b50505050505050565b6116a6611ccf565b600073ffffffffffffffffffffffffffffffffffffffff168173ffffffffffffffffffffffffffffffffffffffff161415611716576040517f08c379a000000000000000000000000000000000000000000000000000000000815260040161170d90612ae6565b60405180910390fd5b61171f81611d4d565b50565b60105481565b600033905090565b600073ffffffffffffffffffffffffffffffffffffffff168373ffffffffffffffffffffffffffffffffffffffff1614156117a0576040517f08c379a000000000000000000000000000000000000000000000000000000000815260040161179790612bc6565b60405180910390fd5b600073ffffffffffffffffffffffffffffffffffffffff168273ffffffffffffffffffffffffffffffffffffffff161415611810576040517f08c379a000000000000000000000000000000000000000000000000000000000815260040161180790612b06565b60405180910390fd5b80600160008573ffffffffffffffffffffffffffffffffffffffff1673ffffffffffffffffffffffffffffffffffffffff16815260200190815260200160002060008473ffffffffffffffffffffffffffffffffffffffff1673ffffffffffffffffffffffffffffffffffffffff168152602001908152602001600020819055508173ffffffffffffffffffffffffffffffffffffffff168373ffffffffffffffffffffffffffffffffffffffff167f8c5be1e5ebec7d5bd14f71427d1e84f3dd0314c0f7b2291e5b200ac8c7c3b925836040516118ee9190612c46565b60405180910390a3505050565b60006119078484610fa6565b90507fffffffffffffffffffffffffffffffffffffffffffffffffffffffffffffffff81146119815781811015611973576040517f08c379a000000000000000000000000000000000000000000000000000000000815260040161196a90612b26565b60405180910390fd5b6119808484848403611730565b5b50505050565b600073ffffffffffffffffffffffffffffffffffffffff168373ffffffffffffffffffffffffffffffffffffffff1614156119f7576040517f08c379a00000000000000000000000000000000000000000000000000000000081526004016119ee90612ba6565b60405180910390fd5b600073ffffffffffffffffffffffffffffffffffffffff168273ffffffffffffffffffffffffffffffffffffffff161415611a67576040517f08c379a0000000000000000000000000000000000000000000000000000000008152600401611a5e90612aa6565b60405180910390fd5b611a72838383612284565b60008060008573ffffffffffffffffffffffffffffffffffffffff1673ffffffffffffffffffffffffffffffffffffffff16815260200190815260200160002054905081811015611af8576040517f08c379a0000000000000000000000000000000000000000000000000000000008152600401611aef90612b46565b60405180910390fd5b600064174876e800600260008673ffffffffffffffffffffffffffffffffffffffff1673ffffffffffffffffffffffffffffffffffffffff1681526020019081526020016000205484611b4b9190612d1f565b611b559190612cee565b90508282036000808773ffffffffffffffffffffffffffffffffffffffff1673ffffffffffffffffffffffffffffffffffffffff1681526020019081526020016000208190555080600080600360009054906101000a900473ffffffffffffffffffffffffffffffffffffffff1673ffffffffffffffffffffffffffffffffffffffff1673ffffffffffffffffffffffffffffffffffffffff168152602001908152602001600020600082825401925050819055508083036000808673ffffffffffffffffffffffffffffffffffffffff1673ffffffffffffffffffffffffffffffffffffffff168152602001908152602001600020600082825401925050819055508373ffffffffffffffffffffffffffffffffffffffff168573ffffffffffffffffffffffffffffffffffffffff167fddf252ad1be2c89b69c2b068fc378daa952ba7f163c4a11628f55a4df523b3ef85604051611cb59190612c46565b60405180910390a3611cc8858585612289565b5050505050565b611cd7611728565b73ffffffffffffffffffffffffffffffffffffffff16611cf5610935565b73ffffffffffffffffffffffffffffffffffffffff1614611d4b576040517f08c379a0000000000000000000000000000000000000000000000000000000008152600401611d4290612b66565b60405180910390fd5b565b6000600760009054906101000a900473ffffffffffffffffffffffffffffffffffffffff16905081600760006101000a81548173ffffffffffffffffffffffffffffffffffffffff021916908373ffffffffffffffffffffffffffffffffffffffff1602179055508173ffffffffffffffffffffffffffffffffffffffff168173ffffffffffffffffffffffffffffffffffffffff167f8be0079c531659141344cd1fd0a4f28419497f9722a3daafe3b4186f6b6457e060405160405180910390a35050565b600080611ec3600b5484600860008973ffffffffffffffffffffffffffffffffffffffff1673ffffffffffffffffffffffffffffffffffffffff16815260200190815260200160002054611e679190612d1f565b611e719190612cee565b600d54600c60008973ffffffffffffffffffffffffffffffffffffffff1673ffffffffffffffffffffffffffffffffffffffff16815260200190815260200160002054611ebe9190612cee565b61228e565b90506000611f35600b548587611ed99190612d1f565b611ee39190612cee565b600d54600c60008a73ffffffffffffffffffffffffffffffffffffffff1673ffffffffffffffffffffffffffffffffffffffff16815260200190815260200160002054611f309190612cee565b61228e565b905081811115611f5157611f4881610f1c565b92505050611f58565b6000925050505b9392505050565b600073ffffffffffffffffffffffffffffffffffffffff168273ffffffffffffffffffffffffffffffffffffffff161415611fcf576040517f08c379a0000000000000000000000000000000000000000000000000000000008152600401611fc690612c26565b60405180910390fd5b611fdb60008383612284565b8060046000828254611fed9190612c98565b92505081905550806000808473ffffffffffffffffffffffffffffffffffffffff1673ffffffffffffffffffffffffffffffffffffffff168152602001908152602001600020600082825401925050819055508173ffffffffffffffffffffffffffffffffffffffff16600073ffffffffffffffffffffffffffffffffffffffff167fddf252ad1be2c89b69c2b068fc378daa952ba7f163c4a11628f55a4df523b3ef8360405161209e9190612c46565b60405180910390a36120b260008383612289565b5050565b600073ffffffffffffffffffffffffffffffffffffffff168273ffffffffffffffffffffffffffffffffffffffff161415612126576040517f08c379a000000000000000000000000000000000000000000000000000000000815260040161211d90612b86565b60405180910390fd5b61213282600083612284565b60008060008473ffffffffffffffffffffffffffffffffffffffff1673ffffffffffffffffffffffffffffffffffffffff168152602001908152602001600020549050818110156121b8576040517f08c379a00000000000000000000000000000000000000000000000000000000081526004016121af90612ac6565b60405180910390fd5b8181036000808573ffffffffffffffffffffffffffffffffffffffff1673ffffffffffffffffffffffffffffffffffffffff1681526020019081526020016000208190555081600460008282540392505081905550600073ffffffffffffffffffffffffffffffffffffffff168373ffffffffffffffffffffffffffffffffffffffff167fddf252ad1be2c89b69c2b068fc378daa952ba7f163c4a11628f55a4df523b3ef8460405161226b9190612c46565b60405180910390a361227f83600084612289565b505050565b505050565b505050565b60008183116122a85782826122a39190612d79565b6122b5565b81836122b49190612d79565b5b905092915050565b6000813590506122cc81612f05565b92915050565b6000815190506122e181612f1c565b92915050565b6000813590506122f681612f33565b92915050565b60008151905061230b81612f33565b92915050565b60006020828403121561232357600080fd5b6000612331848285016122bd565b91505092915050565b6000806040838503121561234d57600080fd5b600061235b858286016122bd565b925050602061236c858286016122bd565b9150509250929050565b60008060006060848603121561238b57600080fd5b6000612399868287016122bd565b93505060206123aa868287016122bd565b92505060406123bb868287016122bd565b9150509250925092565b6000806000606084860312156123da57600080fd5b60006123e8868287016122bd565b93505060206123f9868287016122bd565b925050604061240a868287016122e7565b9150509250925092565b6000806040838503121561242757600080fd5b6000612435858286016122bd565b9250506020612446858286016122e7565b9150509250929050565b60006020828403121561246257600080fd5b6000612470848285016122d2565b91505092915050565b60006020828403121561248b57600080fd5b6000612499848285016122e7565b91505092915050565b6000602082840312156124b457600080fd5b60006124c2848285016122fc565b91505092915050565b6000806000606084860312156124e057600080fd5b60006124ee868287016122e7565b93505060206124ff868287016122bd565b9250506040612510868287016122bd565b9150509250925092565b61252381612dad565b82525050565b61253281612dbf565b82525050565b600061254382612c7c565b61254d8185612c87565b935061255d818560208601612e02565b61256681612ef4565b840191505092915050565b600061257e602383612c87565b91507f45524332303a207472616e7366657220746f20746865207a65726f206164647260008301527f65737300000000000000000000000000000000000000000000000000000000006020830152604082019050919050565b60006125e4602283612c87565b91507f45524332303a206275726e20616d6f756e7420657863656564732062616c616e60008301527f63650000000000000000000000000000000000000000000000000000000000006020830152604082019050919050565b600061264a602683612c87565b91507f4f776e61626c653a206e6577206f776e657220697320746865207a65726f206160008301527f64647265737300000000000000000000000000000000000000000000000000006020830152604082019050919050565b60006126b0602283612c87565b91507f45524332303a20617070726f766520746f20746865207a65726f20616464726560008301527f73730000000000000000000000000000000000000000000000000000000000006020830152604082019050919050565b6000612716601d83612c87565b91507f45524332303a20696e73756666696369656e7420616c6c6f77616e63650000006000830152602082019050919050565b6000612756602683612c87565b91507f45524332303a207472616e7366657220616d6f756e742065786365656473206260008301527f616c616e636500000000000000000000000000000000000000000000000000006020830152604082019050919050565b60006127bc602083612c87565b91507f4f776e61626c653a2063616c6c6572206973206e6f7420746865206f776e65726000830152602082019050919050565b60006127fc602183612c87565b91507f45524332303a206275726e2066726f6d20746865207a65726f2061646472657360008301527f73000000000000000000000000000000000000000000000000000000000000006020830152604082019050919050565b6000612862602583612c87565b91507f45524332303a207472616e736665722066726f6d20746865207a65726f20616460008301527f64726573730000000000000000000000000000000000000000000000000000006020830152604082019050919050565b60006128c8602483612c87565b91507f45524332303a20617070726f76652066726f6d20746865207a65726f2061646460008301527f72657373000000000000000000000000000000000000000000000000000000006020830152604082019050919050565b600061292e602583612c87565b91507f45524332303a2064656372656173656420616c6c6f77616e63652062656c6f7760008301527f207a65726f0000000000000000000000000000000000000000000000000000006020830152604082019050919050565b6000612994601a83612c87565b91507f63616e7427206d696e742066726f6d20746869732061737365740000000000006000830152602082019050919050565b60006129d4601f83612c87565b91507f45524332303a206d696e7420746f20746865207a65726f2061646472657373006000830152602082019050919050565b612a1081612deb565b82525050565b612a1f81612df5565b82525050565b6000602082019050612a3a600083018461251a565b92915050565b6000604082019050612a55600083018561251a565b612a626020830184612a07565b9392505050565b6000602082019050612a7e6000830184612529565b92915050565b60006020820190508181036000830152612a9e8184612538565b905092915050565b60006020820190508181036000830152612abf81612571565b9050919050565b60006020820190508181036000830152612adf816125d7565b9050919050565b60006020820190508181036000830152612aff8161263d565b9050919050565b60006020820190508181036000830152612b1f816126a3565b9050919050565b60006020820190508181036000830152612b3f81612709565b9050919050565b60006020820190508181036000830152612b5f81612749565b9050919050565b60006020820190508181036000830152612b7f816127af565b9050919050565b60006020820190508181036000830152612b9f816127ef565b9050919050565b60006020820190508181036000830152612bbf81612855565b9050919050565b60006020820190508181036000830152612bdf816128bb565b9050919050565b60006020820190508181036000830152612bff81612921565b9050919050565b60006020820190508181036000830152612c1f81612987565b9050919050565b60006020820190508181036000830152612c3f816129c7565b9050919050565b6000602082019050612c5b6000830184612a07565b92915050565b6000602082019050612c766000830184612a16565b92915050565b600081519050919050565b600082825260208201905092915050565b6000612ca382612deb565b9150612cae83612deb565b9250827fffffffffffffffffffffffffffffffffffffffffffffffffffffffffffffffff03821115612ce357612ce2612e67565b5b828201905092915050565b6000612cf982612deb565b9150612d0483612deb565b925082612d1457612d13612e96565b5b828204905092915050565b6000612d2a82612deb565b9150612d3583612deb565b9250817fffffffffffffffffffffffffffffffffffffffffffffffffffffffffffffffff0483118215151615612d6e57612d6d612e67565b5b828202905092915050565b6000612d8482612deb565b9150612d8f83612deb565b925082821015612da257612da1612e67565b5b828203905092915050565b6000612db882612dcb565b9050919050565b60008115159050919050565b600073ffffffffffffffffffffffffffffffffffffffff82169050919050565b6000819050919050565b600060ff82169050919050565b60005b83811015612e20578082015181840152602081019050612e05565b83811115612e2f576000848401525b50505050565b60006002820490506001821680612e4d57607f821691505b60208210811415612e6157612e60612ec5565b5b50919050565b7f4e487b7100000000000000000000000000000000000000000000000000000000600052601160045260246000fd5b7f4e487b7100000000000000000000000000000000000000000000000000000000600052601260045260246000fd5b7f4e487b7100000000000000000000000000000000000000000000000000000000600052602260045260246000fd5b6000601f19601f8301169050919050565b612f0e81612dad565b8114612f1957600080fd5b50565b612f2581612dbf565b8114612f3057600080fd5b50565b612f3c81612deb565b8114612f4757600080fd5b5056fea26469706673582212200fc65b0eaf83aa9602df608f17a42a8f4fb80bad9a8ba88923084a4f684dd08964736f6c63430008000033",
  "linkReferences": {},
  "deployedLinkReferences": {}
}