{"abi":[{"type":"constructor","inputs":[],"stateMutability":"nonpayable"},{"type":"function","name":"DOMAIN_SEPARATOR","inputs":[],"outputs":[{"name":"","type":"bytes32","internalType":"bytes32"}],"stateMutability":"view"},{"type":"function","name":"allowance","inputs":[{"name":"owner","type":"address","internalType":"address"},{"name":"spender","type":"address","internalType":"address"}],"outputs":[{"name":"","type":"uint256","internalType":"uint256"}],"stateMutability":"view"},{"type":"function","name":"approve","inputs":[{"name":"spender","type":"address","internalType":"address"},{"name":"amount","type":"uint256","internalType":"uint256"}],"outputs":[{"name":"","type":"bool","internalType":"bool"}],"stateMutability":"nonpayable"},{"type":"function","name":"balanceOf","inputs":[{"name":"account","type":"address","internalType":"address"}],"outputs":[{"name":"","type":"uint256","internalType":"uint256"}],"stateMutability":"view"},{"type":"function","name":"decimals","inputs":[],"outputs":[{"name":"","type":"uint8","internalType":"uint8"}],"stateMutability":"view"},{"type":"function","name":"decreaseAllowance","inputs":[{"name":"spender","type":"address","internalType":"address"},{"name":"subtractedValue","type":"uint256","internalType":"uint256"}],"outputs":[{"name":"","type":"bool","internalType":"bool"}],"stateMutability":"nonpayable"},{"type":"function","name":"eip712Domain","inputs":[],"outputs":[{"name":"fields","type":"bytes1","internalType":"bytes1"},{"name":"name","type":"string","internalType":"string"},{"name":"version","type":"string","internalType":"string"},{"name":"chainId","type":"uint256","internalType":"uint256"},{"name":"verifyingContract","type":"address","internalType":"address"},{"name":"salt","type":"bytes32","internalType":"bytes32"},{"name":"extensions","type":"uint256[]","internalType":"uint256[]"}],"stateMutability":"view"},{"type":"function","name":"getAsset","inputs":[{"name":"assetAddress","type":"address","internalType":"address"}],"outputs":[{"name":"asset","type":"tuple","internalType":"struct MpAsset","components":[{"name":"quantity","type":"uint128","internalType":"uint128"},{"name":"targetShare","type":"uint16","internalType":"uint16"},{"name":"collectedCashbacks","type":"uint112","internalType":"uint112"}]}],"stateMutability":"view"},{"type":"function","name":"getContext","inputs":[{"name":"forcePushArgs","type":"tuple","internalType":"struct ForcePushArgs","components":[{"name":"contractAddress","type":"address","internalType":"address"},{"name":"timestamp","type":"uint128","internalType":"uint128"},{"name":"sharePrice","type":"uint128","internalType":"uint128"},{"name":"signature","type":"bytes","internalType":"bytes"}]}],"outputs":[{"name":"ctx","type":"tuple","internalType":"struct MpContext","components":[{"name":"sharePrice","type":"uint256","internalType":"uint256"},{"name":"oldTotalSupply","type":"uint256","internalType":"uint256"},{"name":"totalSupplyDelta","type":"int256","internalType":"int256"},{"name":"totalTargetShares","type":"uint256","internalType":"uint256"},{"name":"deviationIncreaseFee","type":"uint256","internalType":"uint256"},{"name":"deviationLimit","type":"uint256","internalType":"uint256"},{"name":"cashbackFeeShare","type":"uint256","internalType":"uint256"},{"name":"baseFee","type":"uint256","internalType":"uint256"},{"name":"managementBaseFee","type":"uint256","internalType":"uint256"},{"name":"deviationFees","type":"uint256","internalType":"uint256"},{"name":"collectedCashbacks","type":"uint256","internalType":"uint256"},{"name":"collectedFees","type":"uint256","internalType":"uint256"},{"name":"managementFeeRecepient","type":"address","internalType":"address"},{"name":"oracleAddress","type":"address","internalType":"address"}]}],"stateMutability":"view"},{"type":"function","name":"getPrice","inputs":[{"name":"asset","type":"address","internalType":"address"}],"outputs":[{"name":"price","type":"uint256","internalType":"uint256"}],"stateMutability":"view"},{"type":"function","name":"getPriceFeed","inputs":[{"name":"asset","type":"address","internalType":"address"}],"outputs":[{"name":"priceFeed","type":"bytes32","internalType":"bytes32"}],"stateMutability":"view"},{"type":"function","name":"increaseAllowance","inputs":[{"name":"spender","type":"address","internalType":"address"},{"name":"addedValue","type":"uint256","internalType":"uint256"}],"outputs":[{"name":"","type":"bool","internalType":"bool"}],"stateMutability":"nonpayable"},{"type":"function","name":"increaseCashback","inputs":[{"name":"assetAddress","type":"address","internalType":"address"}],"outputs":[],"stateMutability":"payable"},{"type":"function","name":"initialize","inputs":[{"name":"name","type":"string","internalType":"string"},{"name":"symbol","type":"string","internalType":"string"},{"name":"_priceVerifierAddress","type":"address","internalType":"address"},{"name":"_sharePrice","type":"uint96","internalType":"uint96"}],"outputs":[],"stateMutability":"nonpayable"},{"type":"function","name":"isTargetShareSetter","inputs":[{"name":"","type":"address","internalType":"address"}],"outputs":[{"name":"","type":"bool","internalType":"bool"}],"stateMutability":"view"},{"type":"function","name":"name","inputs":[],"outputs":[{"name":"","type":"string","internalType":"string"}],"stateMutability":"view"},{"type":"function","name":"nonces","inputs":[{"name":"owner","type":"address","internalType":"address"}],"outputs":[{"name":"","type":"uint256","internalType":"uint256"}],"stateMutability":"view"},{"type":"function","name":"owner","inputs":[],"outputs":[{"name":"","type":"address","internalType":"address"}],"stateMutability":"view"},{"type":"function","name":"permit","inputs":[{"name":"owner","type":"address","internalType":"address"},{"name":"spender","type":"address","internalType":"address"},{"name":"value","type":"uint256","internalType":"uint256"},{"name":"deadline","type":"uint256","internalType":"uint256"},{"name":"v","type":"uint8","internalType":"uint8"},{"name":"r","type":"bytes32","internalType":"bytes32"},{"name":"s","type":"bytes32","internalType":"bytes32"}],"outputs":[],"stateMutability":"nonpayable"},{"type":"function","name":"proxiableUUID","inputs":[],"outputs":[{"name":"","type":"bytes32","internalType":"bytes32"}],"stateMutability":"view"},{"type":"function","name":"renounceOwnership","inputs":[],"outputs":[],"stateMutability":"nonpayable"},{"type":"function","name":"setFeeParams","inputs":[{"name":"newDeviationLimit","type":"uint16","internalType":"uint16"},{"name":"newHalfDeviationFee","type":"uint16","internalType":"uint16"},{"name":"newDepegBaseFee","type":"uint16","internalType":"uint16"},{"name":"newBaseFee","type":"uint16","internalType":"uint16"},{"name":"newManagementFee","type":"uint16","internalType":"uint16"},{"name":"newManagementFeeRecepientAddress","type":"address","internalType":"address"}],"outputs":[],"stateMutability":"nonpayable"},{"type":"function","name":"swap","inputs":[{"name":"forcePushArgs","type":"tuple","internalType":"struct ForcePushArgs","components":[{"name":"contractAddress","type":"address","internalType":"address"},{"name":"timestamp","type":"uint128","internalType":"uint128"},{"name":"sharePrice","type":"uint128","internalType":"uint128"},{"name":"signature","type":"bytes","internalType":"bytes"}]},{"name":"assetInAddress","type":"address","internalType":"address"},{"name":"assetOutAddress","type":"address","internalType":"address"},{"name":"swapAmount","type":"uint256","internalType":"uint256"},{"name":"isExactInput","type":"bool","internalType":"bool"},{"name":"receiverAddress","type":"address","internalType":"address"},{"name":"refundEthToReceiver","type":"bool","internalType":"bool"}],"outputs":[{"name":"amountIn","type":"uint256","internalType":"uint256"},{"name":"amountOut","type":"uint256","internalType":"uint256"}],"stateMutability":"payable"},{"type":"function","name":"symbol","inputs":[],"outputs":[{"name":"","type":"string","internalType":"string"}],"stateMutability":"view"},{"type":"function","name":"toggleStrategyManager","inputs":[{"name":"authority","type":"address","internalType":"address"}],"outputs":[],"stateMutability":"nonpayable"},{"type":"function","name":"totalSupply","inputs":[],"outputs":[{"name":"","type":"uint256","internalType":"uint256"}],"stateMutability":"view"},{"type":"function","name":"transfer","inputs":[{"name":"to","type":"address","internalType":"address"},{"name":"amount","type":"uint256","internalType":"uint256"}],"outputs":[{"name":"","type":"bool","internalType":"bool"}],"stateMutability":"nonpayable"},{"type":"function","name":"transferFrom","inputs":[{"name":"from","type":"address","internalType":"address"},{"name":"to","type":"address","internalType":"address"},{"name":"amount","type":"uint256","internalType":"uint256"}],"outputs":[{"name":"","type":"bool","internalType":"bool"}],"stateMutability":"nonpayable"},{"type":"function","name":"transferOwnership","inputs":[{"name":"newOwner","type":"address","internalType":"address"}],"outputs":[],"stateMutability":"nonpayable"},{"type":"function","name":"updatePriceVerifierAddress","inputs":[{"name":"_priceVerifierAddress","type":"address","internalType":"address"}],"outputs":[],"stateMutability":"nonpayable"},{"type":"function","name":"updatePrices","inputs":[{"name":"assetAddresses","type":"address[]","internalType":"address[]"},{"name":"priceData","type":"bytes32[]","internalType":"bytes32[]"}],"outputs":[],"stateMutability":"nonpayable"},{"type":"function","name":"updateTargetShares","inputs":[{"name":"assetAddresses","type":"address[]","internalType":"address[]"},{"name":"targetShares","type":"uint16[]","internalType":"uint16[]"}],"outputs":[],"stateMutability":"nonpayable"},{"type":"function","name":"upgradeTo","inputs":[{"name":"newImplementation","type":"address","internalType":"address"}],"outputs":[],"stateMutability":"nonpayable"},{"type":"function","name":"upgradeToAndCall","inputs":[{"name":"newImplementation","type":"address","internalType":"address"},{"name":"data","type":"bytes","internalType":"bytes"}],"outputs":[],"stateMutability":"payable"},{"type":"event","name":"AdminChanged","inputs":[{"name":"previousAdmin","type":"address","indexed":false,"internalType":"address"},{"name":"newAdmin","type":"address","indexed":false,"internalType":"address"}],"anonymous":false},{"type":"event","name":"Approval","inputs":[{"name":"owner","type":"address","indexed":true,"internalType":"address"},{"name":"spender","type":"address","indexed":true,"internalType":"address"},{"name":"value","type":"uint256","indexed":false,"internalType":"uint256"}],"anonymous":false},{"type":"event","name":"AssetChange","inputs":[{"name":"asset","type":"address","indexed":true,"internalType":"address"},{"name":"quantity","type":"uint128","indexed":false,"internalType":"uint128"},{"name":"collectedCashbacks","type":"uint128","indexed":false,"internalType":"uint128"}],"anonymous":false},{"type":"event","name":"BeaconUpgraded","inputs":[{"name":"beacon","type":"address","indexed":true,"internalType":"address"}],"anonymous":false},{"type":"event","name":"EIP712DomainChanged","inputs":[],"anonymous":false},{"type":"event","name":"FeesChange","inputs":[{"name":"newDeviationLimit","type":"uint16","indexed":false,"internalType":"uint16"},{"name":"newHalfDeviationFee","type":"uint16","indexed":false,"internalType":"uint16"},{"name":"newDepegBaseFee","type":"uint16","indexed":false,"internalType":"uint16"},{"name":"newBaseFee","type":"uint16","indexed":false,"internalType":"uint16"},{"name":"newManagementFee","type":"uint16","indexed":false,"internalType":"uint16"},{"name":"newManagementFeeRecepientAddress","type":"address","indexed":false,"internalType":"address"}],"anonymous":false},{"type":"event","name":"Initialized","inputs":[{"name":"version","type":"uint8","indexed":false,"internalType":"uint8"}],"anonymous":false},{"type":"event","name":"OwnershipTransferred","inputs":[{"name":"previousOwner","type":"address","indexed":true,"internalType":"address"},{"name":"newOwner","type":"address","indexed":true,"internalType":"address"}],"anonymous":false},{"type":"event","name":"PriceFeedChange","inputs":[{"name":"targetAsset","type":"address","indexed":true,"internalType":"address"},{"name":"newFeed","type":"bytes32","indexed":false,"internalType":"bytes32"}],"anonymous":false},{"type":"event","name":"PriceVerifierUpdated","inputs":[{"name":"oldPriceVerifierAddress","type":"address","indexed":false,"internalType":"address"},{"name":"newPriceVerifierAddress","type":"address","indexed":false,"internalType":"address"}],"anonymous":false},{"type":"event","name":"StrategyManagerToggled","inputs":[{"name":"account","type":"address","indexed":true,"internalType":"address"},{"name":"isTargetShareAuthority","type":"bool","indexed":false,"internalType":"bool"}],"anonymous":false},{"type":"event","name":"TargetShareChange","inputs":[{"name":"asset","type":"address","indexed":true,"internalType":"address"},{"name":"newTargetShare","type":"uint16","indexed":false,"internalType":"uint16"},{"name":"newTotalTargetShares","type":"uint16","indexed":false,"internalType":"uint16"}],"anonymous":false},{"type":"event","name":"Trade","inputs":[{"name":"sender","type":"address","indexed":true,"internalType":"address"},{"name":"quoteValue","type":"uint128","indexed":false,"internalType":"uint128"},{"name":"collectedManagementFees","type":"uint128","indexed":false,"internalType":"uint128"},{"name":"collectedOracleFees","type":"uint128","indexed":false,"internalType":"uint128"}],"anonymous":false},{"type":"event","name":"Transfer","inputs":[{"name":"from","type":"address","indexed":true,"internalType":"address"},{"name":"to","type":"address","indexed":true,"internalType":"address"},{"name":"value","type":"uint256","indexed":false,"internalType":"uint256"}],"anonymous":false},{"type":"event","name":"Upgraded","inputs":[{"name":"implementation","type":"address","indexed":true,"internalType":"address"}],"anonymous":false},{"type":"error","name":"AssetsAreSame","inputs":[]},{"type":"error","name":"DeviationExceedsLimit","inputs":[]},{"type":"error","name":"FeeExceeded","inputs":[]},{"type":"error","name":"InsufficientBalance","inputs":[{"name":"asset","type":"address","internalType":"address"}]},{"type":"error","name":"InvalidTargetShareAuthority","inputs":[]},{"type":"error","name":"NoPriceOriginSet","inputs":[]},{"type":"error","name":"NotEnoughQuantityToBurn","inputs":[]},{"type":"error","name":"SleepageExceeded","inputs":[]},{"type":"error","name":"TargetShareIsZero","inputs":[]},{"type":"error","name":"UniV3PriceFetchingReverted","inputs":[]},{"type":"error","name":"ZeroAmountSupplied","inputs":[]}],"bytecode":{"object":"0x60a0604052306080523480156200001557600080fd5b506200002062000026565b620000e7565b600054610100900460ff1615620000935760405162461bcd60e51b815260206004820152602760248201527f496e697469616c697a61626c653a20636f6e747261637420697320696e697469604482015266616c697a696e6760c81b606482015260840160405180910390fd5b60005460ff90811614620000e5576000805460ff191660ff9081179091556040519081527f7f26b83ff96e1f2b6a682f133852f6798a09c465da95921460cefb38474024989060200160405180910390a15b565b6080516151cc6200011f60003960008181610ae801528181610b7201528181610d3801528181610dbd0152610ea701526151cc6000f3fe6080604052600436106101f95760003560e01c8063715018a61161010d578063b3f0576a116100a0578063dd62ed3e1161006f578063dd62ed3e14610674578063de246326146106ba578063f181d34f146106cd578063f2fde38b146106fe578063fe911c6a1461071e57600080fd5b8063b3f0576a146105ec578063b7e31add14610614578063d505accf14610634578063d96771721461065457600080fd5b80638da5cb5b116100dc5780638da5cb5b1461056f57806395d89b4114610597578063a457c2d7146105ac578063a9059cbb146105cc57600080fd5b8063715018a6146104f25780637297c88e146105075780637ecebe001461052757806384b0196e1461054757600080fd5b80633644e5151161019057806347236e9a1161015f57806347236e9a1461043d5780634f1ef2861461045d57806352d1902d146104705780635b6cca801461048557806370a08231146104bc57600080fd5b80633644e515146103c85780633659cfe6146103dd57806339509351146103fd57806341976e091461041d57600080fd5b80631d118786116101cc5780631d1187861461029a57806323b872dd146102c757806330b8b2c6146102e7578063313ce567146103ac57600080fd5b806303065ede146101fe57806306fdde0314610220578063095ea7b31461024b57806318160ddd1461027b575b600080fd5b34801561020a57600080fd5b5061021e610219366004614382565b61073e565b005b34801561022c57600080fd5b50610235610850565b6040516102429190614454565b60405180910390f35b34801561025757600080fd5b5061026b610266366004614467565b6108e2565b6040519015158152602001610242565b34801561028757600080fd5b506035545b604051908152602001610242565b3480156102a657600080fd5b506102ba6102b53660046144a5565b6108fc565b60405161024291906144da565b3480156102d357600080fd5b5061026b6102e2366004614592565b610aa9565b3480156102f357600080fd5b506103746103023660046145d3565b6040805160608082018352600080835260208084018290529284018190526001600160a01b0394909416845261016482529282902082519384018352546001600160801b0381168452600160801b810461ffff1691840191909152600160901b90046001600160701b03169082015290565b6040805182516001600160801b0316815260208084015161ffff1690820152918101516001600160701b031690820152606001610242565b3480156103b857600080fd5b5060405160128152602001610242565b3480156103d457600080fd5b5061028c610acf565b3480156103e957600080fd5b5061021e6103f83660046145d3565b610ade565b34801561040957600080fd5b5061026b610418366004614467565b610c5e565b34801561042957600080fd5b5061028c6104383660046145d3565b610c9d565b34801561044957600080fd5b5061021e6104583660046145d3565b610cc0565b61021e61046b36600461468f565b610d2e565b34801561047c57600080fd5b5061028c610e9a565b34801561049157600080fd5b5061028c6104a03660046145d3565b6001600160a01b03166000908152610165602052604090205490565b3480156104c857600080fd5b5061028c6104d73660046145d3565b6001600160a01b031660009081526033602052604090205490565b3480156104fe57600080fd5b5061021e610f5f565b34801561051357600080fd5b5061021e61052236600461473f565b610f73565b34801561053357600080fd5b5061028c6105423660046145d3565b611193565b34801561055357600080fd5b5061055c6111b1565b60405161024297969594939291906147ab565b34801561057b57600080fd5b5060cc546040516001600160a01b039091168152602001610242565b3480156105a357600080fd5b50610235611257565b3480156105b857600080fd5b5061026b6105c7366004614467565b611266565b3480156105d857600080fd5b5061026b6105e7366004614467565b611303565b6105ff6105fa36600461484f565b611311565b60408051928352602083019190915201610242565b34801561062057600080fd5b5061021e61062f366004614915565b611b5d565b34801561064057600080fd5b5061021e61064f3660046149be565b611cb8565b34801561066057600080fd5b5061021e61066f36600461473f565b611e1c565b34801561068057600080fd5b5061028c61068f366004614a2f565b6001600160a01b03918216600090815260346020908152604080832093909416825291909152205490565b61021e6106c83660046145d3565b611ede565b3480156106d957600080fd5b5061026b6106e83660046145d3565b6101666020526000908152604090205460ff1681565b34801561070a57600080fd5b5061021e6107193660046145d3565b612010565b34801561072a57600080fd5b5061021e6107393660046145d3565b612086565b6107466120f9565b610162805461ffff87811663ffffffff199092168217620100008a83169081029190911767ffffffff00000000191664010000000089841690810267ffff0000000000001916919091176601000000000000898516908102919091177fffff00000000000000000000000000000000000000000000ffffffffffffffff16680100000000000000006001600160a01b03891690810261ffff60e01b191691909117600160e01b958a1695860217909655604080519586526020860193909352918401526060830152608082015260a08101919091527fa8d22e55a40a205b2b18d033b26a33324b74d4c7c6da57836e591246a9c388b49060c00160405180910390a1505050505050565b60606036805461085f90614a68565b80601f016020809104026020016040519081016040528092919081815260200182805461088b90614a68565b80156108d85780601f106108ad576101008083540402835291602001916108d8565b820191906000526020600020905b8154815290600101906020018083116108bb57829003601f168201915b5050505050905090565b6000336108f0818585612153565b60019150505b92915050565b6109046142dc565b600061090f60355490565b610162546101635491925061ffff808216926201000083048216926401000000008104831692660100000000000082048116926001600160a01b03680100000000000000008404811693600160e01b8104841693600160f01b9091041691908116906bffffffffffffffffffffffff600160a01b9091041660003061099760208f018f6145d3565b6001600160a01b0316036109c5576109b560608e0160408f01614ab8565b6001600160801b03169050610a01565b8a156109ea5730600090815261016560205260409020546109e590612277565b6109fe565b6040826bffffffffffffffffffffffff16901b5b90505b61ffff80851660608e0152818d5260208d018c90528916600003610a26576000610a42565b610a2f8961240b565b610a388b61240b565b610a429190614aff565b60808d0152610a508961240b565b60a08d0152610a5e8861240b565b60c08d0152610a6c8761240b565b60e08d0152610a7a8561240b565b6101008d015250506001600160a01b039384166101808b01529092166101a08901525095979650505050505050565b600033610ab785828561242e565b610ac28585856124c0565b60019150505b9392505050565b6000610ad961266b565b905090565b6001600160a01b037f0000000000000000000000000000000000000000000000000000000000000000163003610b705760405162461bcd60e51b815260206004820152602c60248201527f46756e6374696f6e206d7573742062652063616c6c6564207468726f7567682060448201526b19195b1959d85d1958d85b1b60a21b60648201526084015b60405180910390fd5b7f00000000000000000000000000000000000000000000000000000000000000006001600160a01b0316610bcb7f360894a13ba1a3210667c828492db98dca3e2076cc3735a920a3ca505d382bbc546001600160a01b031690565b6001600160a01b031614610c365760405162461bcd60e51b815260206004820152602c60248201527f46756e6374696f6e206d7573742062652063616c6c6564207468726f7567682060448201526b6163746976652070726f787960a01b6064820152608401610b67565b610c3f81612675565b60408051600080825260208201909252610c5b9183919061267d565b50565b3360008181526034602090815260408083206001600160a01b03871684529091528120549091906108f09082908690610c98908790614b13565b612153565b6001600160a01b038116600090815261016560205260408120546108f690612277565b610cc86120f9565b6001600160a01b03811660008181526101666020908152604091829020805460ff8116801560ff199092168217909255925192835292917fa26fac6682ce5813b55a484e644a58db15cdfe82fe707a30afe6ba413a3b3260910160405180910390a25050565b6001600160a01b037f0000000000000000000000000000000000000000000000000000000000000000163003610dbb5760405162461bcd60e51b815260206004820152602c60248201527f46756e6374696f6e206d7573742062652063616c6c6564207468726f7567682060448201526b19195b1959d85d1958d85b1b60a21b6064820152608401610b67565b7f00000000000000000000000000000000000000000000000000000000000000006001600160a01b0316610e167f360894a13ba1a3210667c828492db98dca3e2076cc3735a920a3ca505d382bbc546001600160a01b031690565b6001600160a01b031614610e815760405162461bcd60e51b815260206004820152602c60248201527f46756e6374696f6e206d7573742062652063616c6c6564207468726f7567682060448201526b6163746976652070726f787960a01b6064820152608401610b67565b610e8a82612675565b610e968282600161267d565b5050565b6000306001600160a01b037f00000000000000000000000000000000000000000000000000000000000000001614610f3a5760405162461bcd60e51b815260206004820152603860248201527f555550535570677261646561626c653a206d757374206e6f742062652063616c60448201527f6c6564207468726f7567682064656c656761746563616c6c00000000000000006064820152608401610b67565b507f360894a13ba1a3210667c828492db98dca3e2076cc3735a920a3ca505d382bbc90565b610f676120f9565b610f71600061280e565b565b336000908152610166602052604090205460ff16610fa45760405163728b97bb60e01b815260040160405180910390fd5b610162548390600160f01b900461ffff1660005b82811015611152576000878783818110610fd457610fd4614b26565b9050602002016020810190610fe991906145d3565b90506000868684818110610fff57610fff614b26565b90506020020160208101906110149190614b3c565b6001600160a01b03831660009081526101646020908152604091829020825160608101845290546001600160801b0381168252600160801b810461ffff16928201839052600160901b90046001600160701b03169281019290925291925090829061107f9087614b59565b6110899190614b7b565b61ffff83811660208481018281526001600160a01b03881660008181526101648452604090819020885181549451838b01516001600160701b0316600160901b026001600160901b03918a16600160801b026001600160901b03199097166001600160801b039093169290921795909517949094169390931790925581519384529385169183019190915292975090917f8120e348012e3a5a7570b900f816e62548cea39d275ebcaabb47215b8c6002ca910160405180910390a2836001019350505050610fb8565b50610162805461ffff909216600160f01b027dffffffffffffffffffffffffffffffffffffffffffffffffffffffffffff9092169190911790555050505050565b6001600160a01b0381166000908152609960205260408120546108f6565b6000606080600080600060606065546000801b1480156111d15750606654155b61121d5760405162461bcd60e51b815260206004820152601560248201527f4549503731323a20556e696e697469616c697a656400000000000000000000006044820152606401610b67565b611225612860565b61122d61286f565b60408051600080825260208201909252600f60f81b9b939a50919850469750309650945092509050565b60606037805461085f90614a68565b3360008181526034602090815260408083206001600160a01b0387168452909152812054909190838110156112eb5760405162461bcd60e51b815260206004820152602560248201527f45524332303a2064656372656173656420616c6c6f77616e63652062656c6f77604482015264207a65726f60d81b6064820152608401610b67565b6112f88286868403612153565b506001949350505050565b6000336108f08185856124c0565b600080876001600160a01b0316876001600160a01b031603611346576040516345d294eb60e01b815260040160405180910390fd5b61134e6142dc565b6040805160608082018352600080835260208084018290528385018290528451928301855281835282018190529281018390529091306001600160a01b038d16036114035761139c8d6108fc565b6001600160a01b038c1660009081526101646020908152604091829020825160608101845290546001600160801b0381168252600160801b810461ffff1692820192909252600160901b9091046001600160701b03169181019190915290945091506115f1565b306001600160a01b038c16036114835761141c8d6108fc565b6001600160a01b038d1660009081526101646020908152604091829020825160608101845290546001600160801b0381168252600160801b810461ffff1692820192909252600160901b9091046001600160701b03169181019190915290945092506115f1565b61016460008d6001600160a01b03166001600160a01b031681526020019081526020016000206040518060600160405290816000820160009054906101000a90046001600160801b03166001600160801b03166001600160801b031681526020016000820160109054906101000a900461ffff1661ffff1661ffff1681526020016000820160129054906101000a90046001600160701b03166001600160701b03166001600160701b031681525050925061016460008c6001600160a01b03166001600160a01b031681526020019081526020016000206040518060600160405290816000820160009054906101000a90046001600160801b03166001600160801b03166001600160801b031681526020016000820160109054906101000a900461ffff1661ffff1661ffff1681526020016000820160129054906101000a90046001600160701b03166001600160701b03166001600160701b03168152505091506115ee8d6108fc565b93505b60006001600160a01b038d16301461162b576001600160a01b038d166000908152610165602052604090205461162690612277565b61162e565b84515b905060006001600160a01b038d16301461166a576001600160a01b038d166000908152610165602052604090205461166590612277565b61166d565b85515b905060608b61167c578161167e565b825b611688908e614b96565b901c92508a6116ac578161169c828e614b96565b6116a69190614aff565b8c6116c2565b8b816116b88483614b96565b6116c29190614aff565b9098509650306001600160a01b038f16036116ea576116e088614bad565b6040870152611702565b306001600160a01b038e160361170257604086018790525b61170f858f8a600061287e565b61171a8d888c6129c5565b6001600160a01b038e1630146117365761173686868a856129f3565b6001600160a01b038d16301461175c5761175c8461175389614bad565b889190846129f3565b5050306001600160a01b038d160361186b576001600160a01b03808c16600090815261016460209081526040918290208551815492870151938701516001600160701b0316600160901b026001600160901b0361ffff909516600160801b026001600160901b03199094166001600160801b039092169190911792909217929092161790558c166000805160206151798339815191526117fb60355490565b604080516001600160801b039092168252600060208301520160405180910390a2815160408084015181516001600160801b0390931683526001600160701b031660208301526001600160a01b038d169160008051602061517983398151915291015b60405180910390a2611b40565b306001600160a01b038c1603611952576001600160a01b038c16600081815261016460209081526040918290208651815488840151898601516001600160801b039093166001600160901b03199092168217600160801b61ffff90921691909102176001600160901b0316600160901b6001600160701b0390931692830217909255835191825291810191909152600080516020615179833981519152910160405180910390a28a6001600160a01b031660008051602061517983398151915261193460355490565b604080516001600160801b039092168252600060208301520161185e565b8261016460008e6001600160a01b03166001600160a01b0316815260200190815260200160002060008201518160000160006101000a8154816001600160801b0302191690836001600160801b0316021790555060208201518160000160106101000a81548161ffff021916908361ffff16021790555060408201518160000160126101000a8154816001600160701b0302191690836001600160701b031602179055509050508161016460008d6001600160a01b03166001600160a01b0316815260200190815260200160002060008201518160000160006101000a8154816001600160801b0302191690836001600160801b0316021790555060208201518160000160106101000a81548161ffff021916908361ffff16021790555060408201518160000160126101000a8154816001600160701b0302191690836001600160701b031602179055509050508b6001600160a01b031660008051602061517983398151915284600001518560400151604051611aee9291906001600160801b039290921682526001600160701b0316602082015260400190565b60405180910390a2815160408084015181516001600160801b0390931683526001600160701b031660208301526001600160a01b038d1691600080516020615179833981519152910160405180910390a25b611b4d848e838b8b612c75565b5050505097509795505050505050565b600054610100900460ff1615808015611b7d5750600054600160ff909116105b80611b975750303b158015611b97575060005460ff166001145b611c095760405162461bcd60e51b815260206004820152602e60248201527f496e697469616c697a61626c653a20636f6e747261637420697320616c72656160448201527f647920696e697469616c697a65640000000000000000000000000000000000006064820152608401610b67565b6000805460ff191660011790558015611c2c576000805461ff0019166101001790555b611c368585612e3a565b611c3f85612e6b565b611c47612eb5565b6bffffffffffffffffffffffff8216600160a01b026001600160a01b03841617610163558015611cb1576000805461ff0019169055604051600181527f7f26b83ff96e1f2b6a682f133852f6798a09c465da95921460cefb38474024989060200160405180910390a15b5050505050565b83421115611d085760405162461bcd60e51b815260206004820152601d60248201527f45524332305065726d69743a206578706972656420646561646c696e650000006044820152606401610b67565b60007f6e71edae12b1b97f4d1f60370fef10105fa2faae0126114a169c64845d6126c9888888611d378c612ee4565b6040805160208101969096526001600160a01b0394851690860152929091166060840152608083015260a082015260c0810186905260e0016040516020818303038152906040528051906020012090506000611d9282612f0a565b90506000611da282878787612f37565b9050896001600160a01b0316816001600160a01b031614611e055760405162461bcd60e51b815260206004820152601e60248201527f45524332305065726d69743a20696e76616c6964207369676e617475726500006044820152606401610b67565b611e108a8a8a612153565b50505050505050505050565b611e246120f9565b8260005b81811015611ed6576000868683818110611e4457611e44614b26565b9050602002016020810190611e5991906145d3565b90506000858584818110611e6f57611e6f614b26565b6001600160a01b0385166000818152610165602090815260409182902093810295909501359283905551828152919450927fad74e30d61aa238f5c8b7ed0f7ba6b92dcd6b65188ec26043dd07e07900af90492500160405180910390a25050600101611e28565b505050505050565b6001600160a01b03811660009081526101646020908152604091829020825160608101845290546001600160801b0381168252600160801b810461ffff1692820192909252600160901b9091046001600160701b03169181018281523492839190611f4a908390614bc9565b6001600160701b03169052508051604080516001600160801b03928316815291841660208301526001600160a01b03851691600080516020615179833981519152910160405180910390a26001600160a01b0390921660009081526101646020908152604091829020845181549286015193909501516001600160701b0316600160901b026001600160901b0361ffff909416600160801b026001600160901b03199093166001600160801b039096169590951791909117919091169290921790915550565b6120186120f9565b6001600160a01b03811661207d5760405162461bcd60e51b815260206004820152602660248201527f4f776e61626c653a206e6577206f776e657220697320746865207a65726f206160448201526564647265737360d01b6064820152608401610b67565b610c5b8161280e565b61208e6120f9565b61016354604080516001600160a01b03928316815291831660208301527f415e826155fcf5c70bfa72c325e36c224152524d7d10719f1e89e75fcf210bc8910160405180910390a161016380546001600160a01b0319166001600160a01b0392909216919091179055565b60cc546001600160a01b03163314610f715760405162461bcd60e51b815260206004820181905260248201527f4f776e61626c653a2063616c6c6572206973206e6f7420746865206f776e65726044820152606401610b67565b6001600160a01b0383166121b55760405162461bcd60e51b8152602060048201526024808201527f45524332303a20617070726f76652066726f6d20746865207a65726f206164646044820152637265737360e01b6064820152608401610b67565b6001600160a01b0382166122165760405162461bcd60e51b815260206004820152602260248201527f45524332303a20617070726f766520746f20746865207a65726f206164647265604482015261737360f01b6064820152608401610b67565b6001600160a01b0383811660008181526034602090815260408083209487168084529482529182902085905590518481527f8c5be1e5ebec7d5bd14f71427d1e84f3dd0314c0f7b2291e5b200ac8c7c3b925910160405180910390a3505050565b6000806122878360006001612f61565b600381111561229857612298614be9565b905060018160038111156122ae576122ae614be9565b036122c7576122c08360016010612f61565b9150612405565b60028160038111156122db576122db614be9565b036123355760006122ef8460016014612f61565b905060006123008560156001612f61565b600114905060006123148660166008612f61565b905061232b83838367ffffffffffffffff16612fba565b9450505050612405565b600381600381111561234957612349614be9565b036123ec57600061235d8460016014612f61565b9050600061236e8560156008612f61565b604051630e75722360e41b815267ffffffffffffffff821660048201529091506001600160a01b0383169063e757223090602401602060405180830381865afa1580156123bf573d6000803e3d6000fd5b505050506040513d601f19601f820116820180604052508101906123e39190614bff565b93505050612405565b604051630215b29560e31b815260040160405180910390fd5b50919050565b6000620186a061242461ffff8416640500000000614b96565b6108f69190614aff565b6001600160a01b0383811660009081526034602090815260408083209386168352929052205460001981146124ba57818110156124ad5760405162461bcd60e51b815260206004820152601d60248201527f45524332303a20696e73756666696369656e7420616c6c6f77616e63650000006044820152606401610b67565b6124ba8484848403612153565b50505050565b6001600160a01b0383166125245760405162461bcd60e51b815260206004820152602560248201527f45524332303a207472616e736665722066726f6d20746865207a65726f206164604482015264647265737360d81b6064820152608401610b67565b6001600160a01b0382166125865760405162461bcd60e51b815260206004820152602360248201527f45524332303a207472616e7366657220746f20746865207a65726f206164647260448201526265737360e81b6064820152608401610b67565b6001600160a01b038316600090815260336020526040902054818110156125fe5760405162461bcd60e51b815260206004820152602660248201527f45524332303a207472616e7366657220616d6f756e7420657863656564732062604482015265616c616e636560d01b6064820152608401610b67565b6001600160a01b0380851660008181526033602052604080822086860390559286168082529083902080548601905591517fddf252ad1be2c89b69c2b068fc378daa952ba7f163c4a11628f55a4df523b3ef9061265e9086815260200190565b60405180910390a36124ba565b6000610ad9613338565b610c5b6120f9565b7f4910fdfa16fed3260ed0e7147f7cc6da11a60208b5b9406d12a635614ffd91435460ff16156126b5576126b0836133ac565b505050565b826001600160a01b03166352d1902d6040518163ffffffff1660e01b8152600401602060405180830381865afa92505050801561270f575060408051601f3d908101601f1916820190925261270c91810190614bff565b60015b6127815760405162461bcd60e51b815260206004820152602e60248201527f45524331393637557067726164653a206e657720696d706c656d656e7461746960448201527f6f6e206973206e6f7420555550530000000000000000000000000000000000006064820152608401610b67565b7f360894a13ba1a3210667c828492db98dca3e2076cc3735a920a3ca505d382bbc81146128025760405162461bcd60e51b815260206004820152602960248201527f45524331393637557067726164653a20756e737570706f727465642070726f786044820152681a58589b195555525160ba1b6064820152608401610b67565b506126b083838361345a565b60cc80546001600160a01b038381166001600160a01b0319831681179093556040519116919082907f8be0079c531659141344cd1fd0a4f28419497f9722a3daafe3b4186f6b6457e090600090a35050565b60606067805461085f90614a68565b60606068805461085f90614a68565b6001600160a01b03831630146129835783516040516370a0823160e01b81523060048201526000916001600160801b0316906001600160a01b038616906370a0823190602401602060405180830381865afa1580156128e1573d6000803e3d6000fd5b505050506040513d601f19601f820116820180604052508101906129059190614bff565b61290f9190614c18565b90508281101561293d5760405163112fed8b60e31b81526001600160a01b0385166004820152602401610b67565b60006129498483614c18565b90506001600160a01b038316158015906129635750600081115b1561297c5761297c6001600160a01b038616848361347f565b50506124ba565b61298d30836134d1565b306000908152603360205260409020546001600160a01b038216158015906129b55750600081115b15611cb157611cb13083836124c0565b6001600160a01b03831630146129e9576126b06001600160a01b038416828461347f565b6126b08183613605565b6000612a0c84600001516001600160801b0316846136c6565b90506000612a22866020015187604001516136c6565b905060008660600151602060ff16876020015161ffff16901b612a459190614aff565b905060008760200151600014612a995787516020808a01518951612a94939290612a79908a906001600160801b0316614b96565b612a8492911b614aff565b612a8e9190614aff565b8361371c565b612a9c565b60005b905060008315612ad9578851612ad490856020612ab98a8a614b96565b612ac492911b614aff565b612ace9190614aff565b8461371c565b612adc565b60005b90506000606087612aec8a61373e565b612af69190614b96565b901c90508282118015612b0c575060208a015115155b15612bd25783600003612b3257604051630f4256b960e31b815260040160405180910390fd5b818a60a001511015612b5757604051633fb8e96160e01b815260040160405180910390fd5b6000602060ff16828c60800151612b6e9190614b96565b60c08d0151911c9150600090602090612b879084614b96565b901c9050612b958183614c18565b8b604001818151612ba69190614bc9565b6001600160701b03169052506101608c01819052612bc48183614c18565b6101208d015250612c5d9050565b828211612c5d5760008315612c145760408a015184906001600160701b0316612bfb8583614c18565b612c059190614b96565b612c0f9190614aff565b612c23565b89604001516001600160701b03165b9050808b61014001818151612c389190614b13565b90525060408a018051829190612c4f908390614c2b565b6001600160701b0316905250505b5050506001600160801b039092169094525050505050565b60008080612c84888734613759565b919450925090508215612cd85783612c9c5733612c9e565b845b6001600160a01b03166108fc849081150290604051600060405180830381858888f19350505050158015612cd6573d6000803e3d6000fd5b505b30612ce660208901896145d3565b6001600160a01b031603612d9c578761018001516001600160a01b03166108fc839081150290604051600060405180830381858888f19350505050158015612d32573d6000803e3d6000fd5b50876101a001516001600160a01b031663b028f19382896040518363ffffffff1660e01b8152600401612d659190614c74565b6000604051808303818588803b158015612d7e57600080fd5b505af1158015612d92573d6000803e3d6000fd5b5050505050612de2565b6101808801516001600160a01b03166108fc612db88385614b13565b6040518115909202916000818181858888f19350505050158015612de0573d6000803e3d6000fd5b505b604080516001600160801b0388811682528481166020830152831681830152905133917f59fe3b21eca424f7790f58e65240d9d4e2ce9542f954a0a57307b043079f9373919081900360600190a25050505050505050565b600054610100900460ff16612e615760405162461bcd60e51b8152600401610b6790614d26565b610e96828261382e565b600054610100900460ff16612e925760405162461bcd60e51b8152600401610b6790614d26565b610c5b81604051806040016040528060018152602001603160f81b81525061386e565b600054610100900460ff16612edc5760405162461bcd60e51b8152600401610b6790614d26565b610f716138bd565b6001600160a01b0381166000908152609960205260409020805460018101825590612405565b60006108f6612f1761266b565b8360405161190160f01b8152600281019290925260228201526042902090565b6000806000612f48878787876138ed565b91509150612f55816139b1565b5090505b949350505050565b60006001612f70836008614b96565b6001901b612f7e9190614c18565b612f89836008614b96565b612f94856008614b96565b612fa090610100614c18565b612faa9190614c18565b8560001c901c1690509392505050565b60008160000361303f57836001600160a01b0316633850c7bd6040518163ffffffff1660e01b815260040160e060405180830381865afa158015613002573d6000803e3d6000fd5b505050506040513d601f19601f820116820180604052508101906130269190614d71565b50506001600160a01b0390941694506132f99350505050565b604080516002808252606082018352600092602083019080368337019050509050828160008151811061307457613074614b26565b602002602001019063ffffffff16908163ffffffff16815250506000816001815181106130a3576130a3614b26565b602002602001019063ffffffff16908163ffffffff1681525050600080866001600160a01b031663883bdbfd60e01b846040516024016130e39190614e04565b60408051601f198184030181529181526020820180516001600160e01b03167fffffffff000000000000000000000000000000000000000000000000000000009094169390931790925290516131399190614e4e565b600060405180830381855afa9150503d8060008114613174576040519150601f19603f3d011682016040523d82523d6000602084013e613179565b606091505b509150915081156132045760008180602001905181019061319a9190614f02565b5090506131f386826000815181106131b4576131b4614b26565b6020026020010151836001815181106131cf576131cf614b26565b60200260200101516131e19190614fc4565b60060b6131ee9190614ff1565b613afb565b6001600160a01b03169450506132f5565b60405160206024820152600360448201526213d31160ea1b606482015260840160408051601f19818403018152919052602080820180516001600160e01b031662461bcd60e51b1781529151909120825191830191909120036132dc57866001600160a01b0316633850c7bd6040518163ffffffff1660e01b815260040160e060405180830381865afa15801561329f573d6000803e3d6000fd5b505050506040513d601f19601f820116820180604052508101906132c39190614d71565b50506001600160a01b0390941697506132f59350505050565b60405163031eeb3d60e31b815260040160405180910390fd5b5050505b82156133225780606061331082600160c01b614aff565b61331b92911b614aff565b9050610ac8565b606061332e8280614b96565b901c949350505050565b60007f8b73c3c69bb8fe3d512ecc4cf759cc79239f7b179b0ffacaa9a75d522b39400f613363613f13565b61336b613f6c565b60408051602081019490945283019190915260608201524660808201523060a082015260c00160405160208183030381529060405280519060200120905090565b6001600160a01b0381163b6134195760405162461bcd60e51b815260206004820152602d60248201527f455243313936373a206e657720696d706c656d656e746174696f6e206973206e60448201526c1bdd08184818dbdb9d1c9858dd609a1b6064820152608401610b67565b7f360894a13ba1a3210667c828492db98dca3e2076cc3735a920a3ca505d382bbc80546001600160a01b0319166001600160a01b0392909216919091179055565b61346383613f9d565b6000825111806134705750805b156126b0576124ba8383613fdd565b604080516001600160a01b038416602482015260448082018490528251808303909101815260649091019091526020810180516001600160e01b031663a9059cbb60e01b1790526126b0908490614002565b6001600160a01b0382166135315760405162461bcd60e51b815260206004820152602160248201527f45524332303a206275726e2066726f6d20746865207a65726f206164647265736044820152607360f81b6064820152608401610b67565b6001600160a01b038216600090815260336020526040902054818110156135a55760405162461bcd60e51b815260206004820152602260248201527f45524332303a206275726e20616d6f756e7420657863656564732062616c616e604482015261636560f01b6064820152608401610b67565b6001600160a01b03831660008181526033602090815260408083208686039055603580548790039055518581529192917fddf252ad1be2c89b69c2b068fc378daa952ba7f163c4a11628f55a4df523b3ef910160405180910390a3505050565b6001600160a01b03821661365b5760405162461bcd60e51b815260206004820152601f60248201527f45524332303a206d696e7420746f20746865207a65726f2061646472657373006044820152606401610b67565b806035600082825461366d9190614b13565b90915550506001600160a01b0382166000818152603360209081526040808320805486019055518481527fddf252ad1be2c89b69c2b068fc378daa952ba7f163c4a11628f55a4df523b3ef910160405180910390a35050565b6000808213156136e1576136da8284614b13565b90506108f6565b6136ea82614bad565b8310613703576136f982614bad565b6136da9084614c18565b60405163da73acd560e01b815260040160405180910390fd5b60008183116137345761372f8383614c18565b610ac8565b610ac88284614c18565b60008082136137555761375082614bad565b6108f6565b5090565b600080600080602060ff168760e00151876137749190614b96565b901c90508661016001518761012001518261378f9190614b13565b6137999190614b13565b9350848761014001516137ac9190614b13565b8411156137cc57604051631aa8046f60e01b815260040160405180910390fd5b83858861014001516137de9190614b13565b6137e89190614c18565b93506000818861016001516137fd9190614b13565b6101008901519091506020906138139083614b96565b901c93506138218482614c18565b9250505093509350939050565b600054610100900460ff166138555760405162461bcd60e51b8152600401610b6790614d26565b60366138618382615065565b5060376126b08282615065565b600054610100900460ff166138955760405162461bcd60e51b8152600401610b6790614d26565b60676138a18382615065565b5060686138ae8282615065565b50506000606581905560665550565b600054610100900460ff166138e45760405162461bcd60e51b8152600401610b6790614d26565b610f713361280e565b6000807f7fffffffffffffffffffffffffffffff5d576e7357a4501ddfe92f46681b20a083111561392457506000905060036139a8565b6040805160008082526020820180845289905260ff881692820192909252606081018690526080810185905260019060a0016020604051602081039080840390855afa158015613978573d6000803e3d6000fd5b5050604051601f1901519150506001600160a01b0381166139a1576000600192509250506139a8565b9150600090505b94509492505050565b60008160048111156139c5576139c5614be9565b036139cd5750565b60018160048111156139e1576139e1614be9565b03613a2e5760405162461bcd60e51b815260206004820152601860248201527f45434453413a20696e76616c6964207369676e617475726500000000000000006044820152606401610b67565b6002816004811115613a4257613a42614be9565b03613a8f5760405162461bcd60e51b815260206004820152601f60248201527f45434453413a20696e76616c6964207369676e6174757265206c656e677468006044820152606401610b67565b6003816004811115613aa357613aa3614be9565b03610c5b5760405162461bcd60e51b815260206004820152602260248201527f45434453413a20696e76616c6964207369676e6174757265202773272076616c604482015261756560f01b6064820152608401610b67565b60008060008360020b12613b12578260020b613b1f565b8260020b613b1f90614bad565b9050613b2e620d89e719615125565b60020b811115613b645760405162461bcd60e51b81526020600482015260016024820152601560fa1b6044820152606401610b67565b600081600116600003613b7b57600160801b613b8d565b6ffffcb933bd6fad37aa2d162d1a5940015b70ffffffffffffffffffffffffffffffffff1690506002821615613bcc576080613bc7826ffff97272373d413259a46990580e213a614b96565b901c90505b6004821615613bf6576080613bf1826ffff2e50f5f656932ef12357cf3c7fdcc614b96565b901c90505b6008821615613c20576080613c1b826fffe5caca7e10e4e61c3624eaa0941cd0614b96565b901c90505b6010821615613c4a576080613c45826fffcb9843d60f6159c9db58835c926644614b96565b901c90505b6020821615613c74576080613c6f826fff973b41fa98c081472e6896dfb254c0614b96565b901c90505b6040821615613c9e576080613c99826fff2ea16466c96a3843ec78b326b52861614b96565b901c90505b6080821615613cc8576080613cc3826ffe5dee046a99a2a811c461f1969c3053614b96565b901c90505b610100821615613cf3576080613cee826ffcbe86c7900a88aedcffc83b479aa3a4614b96565b901c90505b610200821615613d1e576080613d19826ff987a7253ac413176f2b074cf7815e54614b96565b901c90505b610400821615613d49576080613d44826ff3392b0822b70005940c7a398e4b70f3614b96565b901c90505b610800821615613d74576080613d6f826fe7159475a2c29b7443b29c7fa6e889d9614b96565b901c90505b611000821615613d9f576080613d9a826fd097f3bdfd2022b8845ad8f792aa5825614b96565b901c90505b612000821615613dca576080613dc5826fa9f746462d870fdf8a65dc1f90e061e5614b96565b901c90505b614000821615613df5576080613df0826f70d869a156d2a1b890bb3df62baf32f7614b96565b901c90505b618000821615613e20576080613e1b826f31be135f97d08fd981231505542fcfa6614b96565b901c90505b62010000821615613e4c576080613e47826f09aa508b5b7a84e1c677de54f3e99bc9614b96565b901c90505b62020000821615613e77576080613e72826e5d6af8dedb81196699c329225ee604614b96565b901c90505b62040000821615613ea1576080613e9c826d2216e584f5fa1ea926041bedfe98614b96565b901c90505b62080000821615613ec9576080613ec4826b048a170391f7dc42444e8fa2614b96565b901c90505b60008460020b1315613ee457613ee181600019614aff565b90505b613ef364010000000082615147565b15613eff576001613f02565b60005b612f599060ff16602083901c614b13565b600080613f1e612860565b805190915015613f35578051602090910120919050565b6065548015613f445792915050565b7fc5d2460186f7233c927e7db2dcc703c0e500b653ca82273b7bfad8045d85a4709250505090565b600080613f7761286f565b805190915015613f8e578051602090910120919050565b6066548015613f445792915050565b613fa6816133ac565b6040516001600160a01b038216907fbc7cd75a20ee27fd9adebab32041f755214dbc6bffa90cc0225b39da2e5c2d3b90600090a250565b6060610ac88383604051806060016040528060278152602001615199602791396140d7565b6000614057826040518060400160405280602081526020017f5361666545524332303a206c6f772d6c6576656c2063616c6c206661696c6564815250856001600160a01b031661414f9092919063ffffffff16565b9050805160001480614078575080806020019051810190614078919061515b565b6126b05760405162461bcd60e51b815260206004820152602a60248201527f5361666545524332303a204552433230206f7065726174696f6e20646964206e6044820152691bdd081cdd58d8d9595960b21b6064820152608401610b67565b6060600080856001600160a01b0316856040516140f49190614e4e565b600060405180830381855af49150503d806000811461412f576040519150601f19603f3d011682016040523d82523d6000602084013e614134565b606091505b50915091506141458683838761415e565b9695505050505050565b6060612f5984846000856141d7565b606083156141cd5782516000036141c6576001600160a01b0385163b6141c65760405162461bcd60e51b815260206004820152601d60248201527f416464726573733a2063616c6c20746f206e6f6e2d636f6e74726163740000006044820152606401610b67565b5081612f59565b612f5983836142b2565b6060824710156142385760405162461bcd60e51b815260206004820152602660248201527f416464726573733a20696e73756666696369656e742062616c616e636520666f6044820152651c8818d85b1b60d21b6064820152608401610b67565b600080866001600160a01b031685876040516142549190614e4e565b60006040518083038185875af1925050503d8060008114614291576040519150601f19603f3d011682016040523d82523d6000602084013e614296565b606091505b50915091506142a78783838761415e565b979650505050505050565b8151156142c25781518083602001fd5b8060405162461bcd60e51b8152600401610b679190614454565b604051806101c0016040528060008152602001600081526020016000815260200160008152602001600081526020016000815260200160008152602001600081526020016000815260200160008152602001600081526020016000815260200160006001600160a01b0316815260200160006001600160a01b031681525090565b61ffff81168114610c5b57600080fd5b6001600160a01b0381168114610c5b57600080fd5b60008060008060008060c0878903121561439b57600080fd5b86356143a68161435d565b955060208701356143b68161435d565b945060408701356143c68161435d565b935060608701356143d68161435d565b925060808701356143e68161435d565b915060a08701356143f68161436d565b809150509295509295509295565b60005b8381101561441f578181015183820152602001614407565b50506000910152565b60008151808452614440816020860160208601614404565b601f01601f19169290920160200192915050565b602081526000610ac86020830184614428565b6000806040838503121561447a57600080fd5b82356144858161436d565b946020939093013593505050565b60006080828403121561240557600080fd5b6000602082840312156144b757600080fd5b813567ffffffffffffffff8111156144ce57600080fd5b612f5984828501614493565b60006101c082019050825182526020830151602083015260408301516040830152606083015160608301526080830151608083015260a083015160a083015260c083015160c083015260e083015160e083015261010080840151818401525061012080840151818401525061014080840151818401525061016080840151818401525061018080840151614578828501826001600160a01b03169052565b50506101a0928301516001600160a01b0316919092015290565b6000806000606084860312156145a757600080fd5b83356145b28161436d565b925060208401356145c28161436d565b929592945050506040919091013590565b6000602082840312156145e557600080fd5b8135610ac88161436d565b634e487b7160e01b600052604160045260246000fd5b604051601f8201601f1916810167ffffffffffffffff8111828210171561462f5761462f6145f0565b604052919050565b600067ffffffffffffffff831115614651576146516145f0565b614664601f8401601f1916602001614606565b905082815283838301111561467857600080fd5b828260208301376000602084830101529392505050565b600080604083850312156146a257600080fd5b82356146ad8161436d565b9150602083013567ffffffffffffffff8111156146c957600080fd5b8301601f810185136146da57600080fd5b6146e985823560208401614637565b9150509250929050565b60008083601f84011261470557600080fd5b50813567ffffffffffffffff81111561471d57600080fd5b6020830191508360208260051b850101111561473857600080fd5b9250929050565b6000806000806040858703121561475557600080fd5b843567ffffffffffffffff8082111561476d57600080fd5b614779888389016146f3565b9096509450602087013591508082111561479257600080fd5b5061479f878288016146f3565b95989497509550505050565b60ff60f81b881681526000602060e0818401526147cb60e084018a614428565b83810360408501526147dd818a614428565b606085018990526001600160a01b038816608086015260a0850187905284810360c0860152855180825283870192509083019060005b8181101561482f57835183529284019291840191600101614813565b50909c9b505050505050505050505050565b8015158114610c5b57600080fd5b600080600080600080600060e0888a03121561486a57600080fd5b873567ffffffffffffffff81111561488157600080fd5b61488d8a828b01614493565b975050602088013561489e8161436d565b955060408801356148ae8161436d565b94506060880135935060808801356148c581614841565b925060a08801356148d58161436d565b915060c08801356148e581614841565b8091505092959891949750929550565b600082601f83011261490657600080fd5b610ac883833560208501614637565b6000806000806080858703121561492b57600080fd5b843567ffffffffffffffff8082111561494357600080fd5b61494f888389016148f5565b9550602087013591508082111561496557600080fd5b50614972878288016148f5565b93505060408501356149838161436d565b915060608501356bffffffffffffffffffffffff811681146149a457600080fd5b939692955090935050565b60ff81168114610c5b57600080fd5b600080600080600080600060e0888a0312156149d957600080fd5b87356149e48161436d565b965060208801356149f48161436d565b955060408801359450606088013593506080880135614a12816149af565b9699959850939692959460a0840135945060c09093013592915050565b60008060408385031215614a4257600080fd5b8235614a4d8161436d565b91506020830135614a5d8161436d565b809150509250929050565b600181811c90821680614a7c57607f821691505b60208210810361240557634e487b7160e01b600052602260045260246000fd5b80356001600160801b0381168114614ab357600080fd5b919050565b600060208284031215614aca57600080fd5b610ac882614a9c565b634e487b7160e01b600052601260045260246000fd5b634e487b7160e01b600052601160045260246000fd5b600082614b0e57614b0e614ad3565b500490565b808201808211156108f6576108f6614ae9565b634e487b7160e01b600052603260045260246000fd5b600060208284031215614b4e57600080fd5b8135610ac88161435d565b61ffff828116828216039080821115614b7457614b74614ae9565b5092915050565b61ffff818116838216019080821115614b7457614b74614ae9565b80820281158282048414176108f6576108f6614ae9565b6000600160ff1b8201614bc257614bc2614ae9565b5060000390565b6001600160701b03818116838216019080821115614b7457614b74614ae9565b634e487b7160e01b600052602160045260246000fd5b600060208284031215614c1157600080fd5b5051919050565b818103818111156108f6576108f6614ae9565b6001600160701b03828116828216039080821115614b7457614b74614ae9565b81835281816020850137506000828201602090810191909152601f909101601f19169091010190565b6020815260008235614c858161436d565b6001600160a01b038116602084015250614ca160208401614a9c565b6001600160801b03808216604085015280614cbe60408701614a9c565b16606085015250506060830135601e19843603018112614cdd57600080fd5b830160208101903567ffffffffffffffff811115614cfa57600080fd5b803603821315614d0957600080fd5b608080850152614d1d60a085018284614c4b565b95945050505050565b6020808252602b908201527f496e697469616c697a61626c653a20636f6e7472616374206973206e6f74206960408201526a6e697469616c697a696e6760a81b606082015260800190565b600080600080600080600060e0888a031215614d8c57600080fd5b8751614d978161436d565b8097505060208801518060020b8114614daf57600080fd5b6040890151909650614dc08161435d565b6060890151909550614dd18161435d565b6080890151909450614de28161435d565b60a0890151909350614df3816149af565b60c08901519092506148e581614841565b6020808252825182820181905260009190848201906040850190845b81811015614e4257835163ffffffff1683529284019291840191600101614e20565b50909695505050505050565b60008251614e60818460208701614404565b9190910192915050565b600067ffffffffffffffff821115614e8457614e846145f0565b5060051b60200190565b600082601f830112614e9f57600080fd5b81516020614eb4614eaf83614e6a565b614606565b82815260059290921b84018101918181019086841115614ed357600080fd5b8286015b84811015614ef7578051614eea8161436d565b8352918301918301614ed7565b509695505050505050565b60008060408385031215614f1557600080fd5b825167ffffffffffffffff80821115614f2d57600080fd5b818501915085601f830112614f4157600080fd5b81516020614f51614eaf83614e6a565b82815260059290921b84018101918181019089841115614f7057600080fd5b948201945b83861015614f9e5785518060060b8114614f8f5760008081fd5b82529482019490820190614f75565b91880151919650909350505080821115614fb757600080fd5b506146e985828601614e8e565b600682810b9082900b03667fffffffffffff198112667fffffffffffff821317156108f6576108f6614ae9565b60008261500057615000614ad3565b600160ff1b82146000198414161561501a5761501a614ae9565b500590565b601f8211156126b057600081815260208120601f850160051c810160208610156150465750805b601f850160051c820191505b81811015611ed657828155600101615052565b815167ffffffffffffffff81111561507f5761507f6145f0565b6150938161508d8454614a68565b8461501f565b602080601f8311600181146150c857600084156150b05750858301515b600019600386901b1c1916600185901b178555611ed6565b600085815260208120601f198616915b828110156150f7578886015182559484019460019091019084016150d8565b50858210156151155787850151600019600388901b60f8161c191681555b5050505050600190811b01905550565b60008160020b627fffff19810361513e5761513e614ae9565b60000392915050565b60008261515657615156614ad3565b500690565b60006020828403121561516d57600080fd5b8151610ac88161484156fe7bc0c9f5bc557f39e26a7974d5e2b1a3276e790eab52e6d80c35a1fb55641dd3416464726573733a206c6f772d6c6576656c2064656c65676174652063616c6c206661696c6564a164736f6c6343000813000a","linkReferences":{}},"methodIdentifiers":{"DOMAIN_SEPARATOR()":"3644e515","allowance(address,address)":"dd62ed3e","approve(address,uint256)":"095ea7b3","balanceOf(address)":"70a08231","decimals()":"313ce567","decreaseAllowance(address,uint256)":"a457c2d7","eip712Domain()":"84b0196e","getAsset(address)":"30b8b2c6","getContext((address,uint128,uint128,bytes))":"1d118786","getPrice(address)":"41976e09","getPriceFeed(address)":"5b6cca80","increaseAllowance(address,uint256)":"39509351","increaseCashback(address)":"de246326","initialize(string,string,address,uint96)":"b7e31add","isTargetShareSetter(address)":"f181d34f","name()":"06fdde03","nonces(address)":"7ecebe00","owner()":"8da5cb5b","permit(address,address,uint256,uint256,uint8,bytes32,bytes32)":"d505accf","proxiableUUID()":"52d1902d","renounceOwnership()":"715018a6","setFeeParams(uint16,uint16,uint16,uint16,uint16,address)":"03065ede","swap((address,uint128,uint128,bytes),address,address,uint256,bool,address,bool)":"b3f0576a","symbol()":"95d89b41","toggleStrategyManager(address)":"47236e9a","totalSupply()":"18160ddd","transfer(address,uint256)":"a9059cbb","transferFrom(address,address,uint256)":"23b872dd","transferOwnership(address)":"f2fde38b","updatePriceVerifierAddress(address)":"fe911c6a","updatePrices(address[],bytes32[])":"d9677172","updateTargetShares(address[],uint16[])":"7297c88e","upgradeTo(address)":"3659cfe6","upgradeToAndCall(address,bytes)":"4f1ef286"},"id":73}